INCAMPRE02LIB00069L1234567007940000023                                     FANDE                                                                                                                                                                                                                                                                                                                                                                                                                                                                                                                                                                                                                                                                                                                                                                                                                                                                                                                                                                                                                                                                                                                                                                                                                       
ISINLI@RHM.ES                                      libreria@example.org                              CAMPRE0200000022                                                                                                                                                                                                                                                                                                                                                                                                                                                                                                                                                                                                                                                                                                                                                                                                                                                                                                                                                                                                                                                                                                                                                                                  
CPENGUIN RANDOM HOUSE GRUPO EDITORIAL    20201001E                                                                                                                                                                                                                                                                                                                                                                                                                                                                                                                                                                                                                                                                                                                                                                                                                                                                                                                                                                                                                                                                                                                                                                                                                                                     
D978-84-9989-270-29788499892702     P99270A        0000000957000000099500400LIBRO DEL EGO, EL                       F                                                                                                                                                                                                                                                                                                                                                                                                                                                                                                                                                                                                                                                                                                                                                                                                                                                                                                                                                                                                                                                                                                                                                                                  
D978-84-9908-366-79788499083667     P883667        0000000861000000089500400NIETZSCHE PARA ESTRESADOS               F                                                                                                                                                                                                                                                                                                                                                                                                                                                                                                                                                                                                                                                                                                                                                                                                                                                                                                                                                                                                                                                                                                                                                                                  
D978-84-663-3327-69788466333276     P333276        0000001053000000109500400SOMBRA DEL AGUILA, LA                   F                                                                                                                                                                                                                                                                                                                                                                                                                                                                                                                                                                                                                                                                                                                                                                                                                                                                                                                                                                                                                                                                                                                                                                                  
D978-84-9908-141-09788499081410     P88141A        0000000957000000099500400INTUICION                               F                                                                                                                                                                                                                                                                                                                                                                                                                                                                                                                                                                                                                                                                                                                                                                                                                                                                                                                                                                                                                                                                                                                                                                                  
D978-84-9989-031-99788499890319     P890319        0000000957000000099500400LIBRO DEL SEXO, EL                      F                                                                                                                                                                                                                                                                                                                                                                                                                                                                                                                                                                                                                                                                                                                                                                                                                                                                                                                                                                                                                                                                                                                                                                                  
D978-84-9908-984-39788499089843     P88984A        0000000957000000099500400LIBERTAD                                F                                                                                                                                                                                                                                                                                                                                                                                                                                                                                                                                                                                                                                                                                                                                                                                                                                                                                                                                                                                                                                                                                                                                                                                  
D8498387292       9788498387292     SB87292        0000000957000000099500400ANALFABETA QUE ERA UN GENIO DE LOS NUMERF                                                                                                                                                                                                                                                                                                                                                                                                                                                                                                                                                                                                                                                                                                                                                                                                                                                                                                                                                                                                                                                                                                                                                                                  
D8498387896       9788498387896     SB87896        0000001245000000129500400LIBRO DE MI DESTINO, EL                 F                                                                                                                                                                                                                                                                                                                                                                                                                                                                                                                                                                                                                                                                                                                                                                                                                                                                                                                                                                                                                                                                                                                                                                                  
D978-84-8346-008-59788483460085     P86008B        0000000957000000099500400ERIC (MUNDODISCO 9)                     F                                                                                                                                                                                                                                                                                                                                                                                                                                                                                                                                                                                                                                                                                                                                                                                                                                                                                                                                                                                                                                                                                                                                                                                  
D978-84-9032-873-69788490328736     P328736        0000000957000000099500400PRINCIPIO DE PETER, EL                  F                                                                                                                                                                                                                                                                                                                                                                                                                                                                                                                                                                                                                                                                                                                                                                                                                                                                                                                                                                                                                                                                                                                                                                                  
D978-84-663-3169-29788466331692     P331692        0000000957000000099500400MI HERMANA VIVE SOBRE LA REPISA DE LA CHF                                                                                                                                                                                                                                                                                                                                                                                                                                                                                                                                                                                                                                                                                                                                                                                                                                                                                                                                                                                                                                                                                                                                                                                  
D978-84-8346-328-49788483463284     P86328A        0000000957000000099500400MORT (MUNDODISCO 4)                     F                                                                                                                                                                                                                                                                                                                                                                                                                                                                                                                                                                                                                                                                                                                                                                                                                                                                                                                                                                                                                                                                                                                                                                                  
D8498384260       9788498384260     SB84260        0000000957000000099500400CENA, LA                                F                                                                                                                                                                                                                                                                                                                                                                                                                                                                                                                                                                                                                                                                                                                                                                                                                                                                                                                                                                                                                                                                                                                                                                                  
D8498389067       9788498389067     SB89067        0000000957000000099500400ASAMBLEA DE LOS MUERTOS, LA             F                                                                                                                                                                                                                                                                                                                                                                                                                                                                                                                                                                                                                                                                                                                                                                                                                                                                                                                                                                                                                                                                                                                                                                                  
D8498384642       9788498384642     SB84642        0000000957000000099500400TIERRA DESACOSTUMBRADA                  F                                                                                                                                                                                                                                                                                                                                                                                                                                                                                                                                                                                                                                                                                                                                                                                                                                                                                                                                                                                                                                                                                                                                                                                  
D8498384734       9788498384734     SB84734        0000000957000000099500400MES CON MONTALBANO, UN (MONTALBANO 5)   F                                                                                                                                                                                                                                                                                                                                                                                                                                                                                                                                                                                                                                                                                                                                                                                                                                                                                                                                                                                                                                                                                                                                                                                  
D8498388305       9788498388305     SB88305        0000000957000000099500400MATON QUE SO?ABA CON UN LUGAR EN EL PARAF                                                                                                                                                                                                                                                                                                                                                                                                                                                                                                                                                                                                                                                                                                                                                                                                                                                                                                                                                                                                                                                                                                                                                                                  
D8498389579       9788498389579     SB89579        0000000957000000099500400HONDONADA, LA                           F                                                                                                                                                                                                                                                                                                                                                                                                                                                                                                                                                                                                                                                                                                                                                                                                                                                                                                                                                                                                                                                                                                                                                                                  
D8498387889       9788498387889     SB87889        0000001245000000129500400CASA DE LAS MINIATURAS, LA              F                                                                                                                                                                                                                                                                                                                                                                                                                                                                                                                                                                                                                                                                                                                                                                                                                                                                                                                                                                                                                                                                                                                                                                                  
D8498387476       9788498387476     SB87476        0000001245000000129500400LENGUAJE DE LAS FLORES, EL              F                                                                                                                                                                                                                                                                                                                                                                                                                                                                                                                                                                                                                                                                                                                                                                                                                                                                                                                                                                                                                                                                                                                                                                                  
D8498389562       9788498389562     SB89562        0000000957000000099500400VOLVER A CASA                           F                                                                                                                                                                                                                                                                                                                                                                                                                                                                                                                                                                                                                                                                                                                                                                                                                                                                                                                                                                                                                                                                                                                                                                                  
D8498384789       9788498384789     SB84789        0000001245000000129500400LIBERTAD                                F                                                                                                                                                                                                                                                                                                                                                                                                                                                                                                                                                                                                                                                                                                                                                                                                                                                                                                                                                                                                                                                                                                                                                                                  
D8498388121       9788498388121     SB88121        0000000957000000099500400MAESTRO DE ALMAS, EL                    F                                                                                                                                                                                                                                                                                                                                                                                                                                                                                                                                                                                                                                                                                                                                                                                                                                                                                                                                                                                                                                                                                                                                                                                  
D8498385786       9788498385786     SB85786        0000001245000000129500400CORRECCIONES, LAS                       F                                                                                                                                                                                                                                                                                                                                                                                                                                                                                                                                                                                                                                                                                                                                                                                                                                                                                                                                                                                                                                                                                                                                                                                  
D8498388312       9788498388312     SB88312        0000000957000000099500400UNA VOZ ESCONDIDA                       F                                                                                                                                                                                                                                                                                                                                                                                                                                                                                                                                                                                                                                                                                                                                                                                                                                                                                                                                                                                                                                                                                                                                                                                  
D8498387872       9788498387872     SB87872        0000000957000000099500400ALMAS GRISES                            F                                                                                                                                                                                                                                                                                                                                                                                                                                                                                                                                                                                                                                                                                                                                                                                                                                                                                                                                                                                                                                                                                                                                                                                  
D8498386929       9788498386929     SB86929        0000000957000000099500400INFORME DE BRODECK, EL                  F                                                                                                                                                                                                                                                                                                                                                                                                                                                                                                                                                                                                                                                                                                                                                                                                                                                                                                                                                                                                                                                                                                                                                                                  
D8498386882       9788498386882     SB86882        0000000957000000099500400A?OS LUZ                                F                                                                                                                                                                                                                                                                                                                                                                                                                                                                                                                                                                                                                                                                                                                                                                                                                                                                                                                                                                                                                                                                                                                                                                                  
D8498383669       9788498383669     SB83669        0000000861000000089500400HERENCIA DE ESZTER, LA                  F                                                                                                                                                                                                                                                                                                                                                                                                                                                                                                                                                                                                                                                                                                                                                                                                                                                                                                                                                                                                                                                                                                                                                                                  
D8498387483       9788498387483     SB87483        0000000957000000099500400LORO EN EL LIMONERO, EL                 F                                                                                                                                                                                                                                                                                                                                                                                                                                                                                                                                                                                                                                                                                                                                                                                                                                                                                                                                                                                                                                                                                                                                                                                  
D8498384314       9788498384314     SB84314        0000000957000000099500400ESTEPA INFINITA, LA                     F                                                                                                                                                                                                                                                                                                                                                                                                                                                                                                                                                                                                                                                                                                                                                                                                                                                                                                                                                                                                                                                                                                                                                                                  
D8498388091       9788498388091     SB88091        0000000957000000099500400NI?O 44, EL                             F                                                                                                                                                                                                                                                                                                                                                                                                                                                                                                                                                                                                                                                                                                                                                                                                                                                                                                                                                                                                                                                                                                                                                                                  
D8498387315       9788498387315     SB87315        0000000957000000099500400JUEGO Y DISTRACCION                     F                                                                                                                                                                                                                                                                                                                                                                                                                                                                                                                                                                                                                                                                                                                                                                                                                                                                                                                                                                                                                                                                                                                                                                                  
D8498384659       9788498384659     SB84659        0000000957000000099500400ASTRID Y VERONIKA                       F                                                                                                                                                                                                                                                                                                                                                                                                                                                                                                                                                                                                                                                                                                                                                                                                                                                                                                                                                                                                                                                                                                                                                                                  
D8498384741       9788498384741     SB84741        0000000957000000099500400NOCHEVIEJA DE MONTALBANO (MONTALBANO 6) F                                                                                                                                                                                                                                                                                                                                                                                                                                                                                                                                                                                                                                                                                                                                                                                                                                                                                                                                                                                                                                                                                                                                                                                  
D8498385199       9788498385199     SB85199        0000001341000000139500400LADO OSCURO DEL AMOR, EL                F                                                                                                                                                                                                                                                                                                                                                                                                                                                                                                                                                                                                                                                                                                                                                                                                                                                                                                                                                                                                                                                                                                                                                                                  
D8498384727       9788498384727     SB84727        0000000957000000099500400SOL DE LOS SCORTA, EL                   F                                                                                                                                                                                                                                                                                                                                                                                                                                                                                                                                                                                                                                                                                                                                                                                                                                                                                                                                                                                                                                                                                                                                                                                  
D8498383713       9788498383713     SB83713        0000000861000000089500400DIVORCIO EN BUDA                        F                                                                                                                                                                                                                                                                                                                                                                                                                                                                                                                                                                                                                                                                                                                                                                                                                                                                                                                                                                                                                                                                                                                                                                                  
D8498383768       9788498383768     SB83768        0000001245000000129500400HIJOS DEL ANCHO MUNDO                   F                                                                                                                                                                                                                                                                                                                                                                                                                                                                                                                                                                                                                                                                                                                                                                                                                                                                                                                                                                                                                                                                                                                                                                                  
D8498387513       9788498387513     SB87513        0000000957000000099500400GALVESTON                               F                                                                                                                                                                                                                                                                                                                                                                                                                                                                                                                                                                                                                                                                                                                                                                                                                                                                                                                                                                                                                                                                                                                                                                                  
D8498386080       9788498386080     SB86080        0000000957000000099500400NORMAS DE CORTESIA                      F                                                                                                                                                                                                                                                                                                                                                                                                                                                                                                                                                                                                                                                                                                                                                                                                                                                                                                                                                                                                                                                                                                                                                                                  
D8498387537       9788498387537     SB87537        0000001149000000119500400OBSERVADA                               F                                                                                                                                                                                                                                                                                                                                                                                                                                                                                                                                                                                                                                                                                                                                                                                                                                                                                                                                                                                                                                                                                                                                                                                  
D8498386073       9788498386073     SB86073        0000000861000000089500400TRES MANERAS DE VOLCAR UN BARCO         F                                                                                                                                                                                                                                                                                                                                                                                                                                                                                                                                                                                                                                                                                                                                                                                                                                                                                                                                                                                                                                                                                                                                                                                  
D8498385816       9788498385816     SB85816        0000000861000000089500400GAVIOTA, LA                             F                                                                                                                                                                                                                                                                                                                                                                                                                                                                                                                                                                                                                                                                                                                                                                                                                                                                                                                                                                                                                                                                                                                                                                                  
D8498388084       9788498388084     SB88084        0000001053000000109500400ENTRY ISLAND                            F                                                                                                                                                                                                                                                                                                                                                                                                                                                                                                                                                                                                                                                                                                                                                                                                                                                                                                                                                                                                                                                                                                                                                                                  
D8498384703       9788498384703     SB84703        0000000861000000089500400PERROS Y LOS LOBOS, LOS                 F                                                                                                                                                                                                                                                                                                                                                                                                                                                                                                                                                                                                                                                                                                                                                                                                                                                                                                                                                                                                                                                                                                                                                                                  
D8498385847       9788498385847     SB85847        0000000957000000099500400AMANTE DE BOLZANO, LA                   F                                                                                                                                                                                                                                                                                                                                                                                                                                                                                                                                                                                                                                                                                                                                                                                                                                                                                                                                                                                                                                                                                                                                                                                  
D8498385229       9788498385229     SB85229        0000000957000000099500400INSOLITO PEREGRINAJE DE HAROLD FRY, EL  F                                                                                                                                                                                                                                                                                                                                                                                                                                                                                                                                                                                                                                                                                                                                                                                                                                                                                                                                                                                                                                                                                                                                                                                  
D8498385212       9788498385212     SB85212        0000000957000000099500400CASA DE VERANO CON PISCINA              F                                                                                                                                                                                                                                                                                                                                                                                                                                                                                                                                                                                                                                                                                                                                                                                                                                                                                                                                                                                                                                                                                                                                                                                  
D8498384352       9788498384352     SB84352        0000000957000000099500400REBELDES, LOS                           F                                                                                                                                                                                                                                                                                                                                                                                                                                                                                                                                                                                                                                                                                                                                                                                                                                                                                                                                                                                                                                                                                                                                                                                  
D8498387520       9788498387520     SB87520        0000000957000000099500400MUJER DE UN SOLO HOMBRE, LA             F                                                                                                                                                                                                                                                                                                                                                                                                                                                                                                                                                                                                                                                                                                                                                                                                                                                                                                                                                                                                                                                                                                                                                                                  
D978-84-663-3163-09788466331630     P33163A        0000001053000000109500400HISTORIA DE UNA MAESTRA                 F                                                                                                                                                                                                                                                                                                                                                                                                                                                                                                                                                                                                                                                                                                                                                                                                                                                                                                                                                                                                                                                                                                                                                                                  
D978-84-9793-569-29788497935692     P83569C        0000000957000000099500400CIUDAD DE LAS BESTIAS, LA               F                                                                                                                                                                                                                                                                                                                                                                                                                                                                                                                                                                                                                                                                                                                                                                                                                                                                                                                                                                                                                                                                                                                                                                                  
D978-84-9793-570-89788497935708     P83570B        0000000957000000099500400REINO DEL DRAGON DE ORO, EL             F                                                                                                                                                                                                                                                                                                                                                                                                                                                                                                                                                                                                                                                                                                                                                                                                                                                                                                                                                                                                                                                                                                                                                                                  
D978-84-9793-824-29788497938242     P83824A        0000000957000000099500400PROPIOS DIOSES, LOS                     F                                                                                                                                                                                                                                                                                                                                                                                                                                                                                                                                                                                                                                                                                                                                                                                                                                                                                                                                                                                                                                                                                                                                                                                  
D978-84-9070-215-49788490702154     BB02154        0000001245000000129500400BANU QASI. LA HORA DEL CALIFA           F                                                                                                                                                                                                                                                                                                                                                                                                                                                                                                                                                                                                                                                                                                                                                                                                                                                                                                                                                                                                                                                                                                                                                                                  
D978-84-9872-595-79788498725957     BB25957        0000001245000000129500400BANU QASI. LOS HIJOS DE CASIO           F                                                                                                                                                                                                                                                                                                                                                                                                                                                                                                                                                                                                                                                                                                                                                                                                                                                                                                                                                                                                                                                                                                                                                                                  
D978-84-9070-183-69788490701836     BB0183A        0000001149000000119500400PUERTA PINTADA, LA                      F                                                                                                                                                                                                                                                                                                                                                                                                                                                                                                                                                                                                                                                                                                                                                                                                                                                                                                                                                                                                                                                                                                                                                                                  
D978-84-9062-489-09788490624890     P624890        0000000957000000099500400HOMBRE LLAMADO OVE, UN                  F                                                                                                                                                                                                                                                                                                                                                                                                                                                                                                                                                                                                                                                                                                                                                                                                                                                                                                                                                                                                                                                                                                                                                                                  
D978-84-9062-389-39788490623893     P623893        0000001053000000109500400MEMORIAS BALTHUS                        F                                                                                                                                                                                                                                                                                                                                                                                                                                                                                                                                                                                                                                                                                                                                                                                                                                                                                                                                                                                                                                                                                                                                                                                  
D978-84-9032-831-69788490328316     P328316        0000000957000000099500400MISTERIO DE PONT-AVEN, EL               F                                                                                                                                                                                                                                                                                                                                                                                                                                                                                                                                                                                                                                                                                                                                                                                                                                                                                                                                                                                                                                                                                                                                                                                  
D978-84-9908-008-69788499080086     P88008B        0000000957000000099500400EJECUTIVO AL MINUTO, EL                 F                                                                                                                                                                                                                                                                                                                                                                                                                                                                                                                                                                                                                                                                                                                                                                                                                                                                                                                                                                                                                                                                                                                                                                                  
D978-84-9032-521-69788490325216     P325216        0000000957000000099500400INCREIBLE CASO DE BARNABY BROCKET, EL   F                                                                                                                                                                                                                                                                                                                                                                                                                                                                                                                                                                                                                                                                                                                                                                                                                                                                                                                                                                                                                                                                                                                                                                                  
D978-84-9062-760-09788490627600     P627600        0000000957000000099500400ZOMBI.GUIA DE SUPERVIVENCIA             F                                                                                                                                                                                                                                                                                                                                                                                                                                                                                                                                                                                                                                                                                                                                                                                                                                                                                                                                                                                                                                                                                                                                                                                  
D978-84-663-2937-89788466329378     P32937A        0000000957000000099500400SOLDADOS DE SALAMINA                    F                                                                                                                                                                                                                                                                                                                                                                                                                                                                                                                                                                                                                                                                                                                                                                                                                                                                                                                                                                                                                                                                                                                                                                                  
D978-84-9062-349-79788490623497     P623497        0000001053000000109500400ANATOMIA DE UN INSTANTE                 F                                                                                                                                                                                                                                                                                                                                                                                                                                                                                                                                                                                                                                                                                                                                                                                                                                                                                                                                                                                                                                                                                                                                                                                  
D978-84-9062-750-19788490627501     P62750A        0000001053000000109500400IMPOSTOR, EL (ED.ACTUALIZADA)           F                                                                                                                                                                                                                                                                                                                                                                                                                                                                                                                                                                                                                                                                                                                                                                                                                                                                                                                                                                                                                                                                                                                                                                                  
D978-84-663-4447-09788466344470     P344470        0000000957000000099500400CONDENADOS                              F                                                                                                                                                                                                                                                                                                                                                                                                                                                                                                                                                                                                                                                                                                                                                                                                                                                                                                                                                                                                                                                                                                                                                                                  
D978-84-663-3191-39788466331913     P331913        0000001245000000129500400CUENTOS COMPLETOS 1 - CORTAZAR          F                                                                                                                                                                                                                                                                                                                                                                                                                                                                                                                                                                                                                                                                                                                                                                                                                                                                                                                                                                                                                                                                                                                                                                                  
D978-84-9759-595-79788497595957     P89595B        0000000957000000099500400ARTE DE LA FELICIDAD, EL                F                                                                                                                                                                                                                                                                                                                                                                                                                                                                                                                                                                                                                                                                                                                                                                                                                                                                                                                                                                                                                                                                                                                                                                                  
D978-84-9908-360-59788499083605     P883605        0000000957000000099500400TUS ZONAS MAGICAS                       F                                                                                                                                                                                                                                                                                                                                                                                                                                                                                                                                                                                                                                                                                                                                                                                                                                                                                                                                                                                                                                                                                                                                                                                  
D978-84-9989-779-09788499897790     P997790        0000000957000000099500400CHICAS BUENAS VAN AL CIELO, LAS         F                                                                                                                                                                                                                                                                                                                                                                                                                                                                                                                                                                                                                                                                                                                                                                                                                                                                                                                                                                                                                                                                                                                                                                                  
D978-84-663-2908-89788466329088     P329088        0000000957000000099500400COMO AGUA PARA CHOCOLATE                F                                                                                                                                                                                                                                                                                                                                                                                                                                                                                                                                                                                                                                                                                                                                                                                                                                                                                                                                                                                                                                                                                                                                                                                  
D978-84-663-2907-19788466329071     P329071        0000000957000000099500400TAN VELOZ COMO EL DESEO                 F                                                                                                                                                                                                                                                                                                                                                                                                                                                                                                                                                                                                                                                                                                                                                                                                                                                                                                                                                                                                                                                                                                                                                                                  
D978-84-9032-775-39788490327753     P327753        0000000957000000099500400DESAYUNO CON PARTICULAS                 F                                                                                                                                                                                                                                                                                                                                                                                                                                                                                                                                                                                                                                                                                                                                                                                                                                                                                                                                                                                                                                                                                                                                                                                  
D978-84-9872-392-29788498723922     BB23922        0000001149000000119500400JUAN MARCH                              F                                                                                                                                                                                                                                                                                                                                                                                                                                                                                                                                                                                                                                                                                                                                                                                                                                                                                                                                                                                                                                                                                                                                                                                  
