INCAMPRE02LIB00069L1234567000080000041                                     FANDE                                                                                                                                                                                                                                                                                                                                                                                                                                                                                                                                                                                                                                                                                                                                                                                                                                                                                                                                                                                                                                                                                                                                                                                                                       
ISINLI@RHM.ES                                      libreria@example.org                              CAMPRE0200000040                                                                                                                                                                                                                                                                                                                                                                                                                                                                                                                                                                                                                                                                                                                                                                                                                                                                                                                                                                                                                                                                                                                                                                                  
CPENGUIN RANDOM HOUSE GRUPO EDITORIAL    20200908E                                                                                                                                                                                                                                                                                                                                                                                                                                                                                                                                                                                                                                                                                                                                                                                                                                                                                                                                                                                                                                                                                                                                                                                                                                                     
D978-84-17347-82-69788417347826     NV47826        0000002106000000219000400CENIZAS DE BABILONIA (THE EXPANSE 6)    F                                                                                                                                                                                                                                                                                                                                                                                                                                                                                                                                                                                                                                                                                                                                                                                                                                                                                                                                                                                                                                                                                                                                                                                  
D978-84-666-6799-99788466667999     BS67999        0000001913000000199000400ANIMAL                                  F                                                                                                                                                                                                                                                                                                                                                                                                                                                                                                                                                                                                                                                                                                                                                                                                                                                                                                                                                                                                                                                                                                                                                                                  
D978-84-666-6810-19788466668101     BS68101        0000002106000000219000400BUCLE INFINITO, EL                      F                                                                                                                                                                                                                                                                                                                                                                                                                                                                                                                                                                                                                                                                                                                                                                                                                                                                                                                                                                                                                                                                                                                                                                                  
D978-84-18045-08-09788418045080     VE45080        0000001721000000179000400UN MENSAJE NUEVO                        F                                                                                                                                                                                                                                                                                                                                                                                                                                                                                                                                                                                                                                                                                                                                                                                                                                                                                                                                                                                                                                                                                                                                                                                  
D978-84-253-5850-09788425358500     GR58500        0000001625000000169000400SI DIJERAMOS LA VERDAD                  F                                                                                                                                                                                                                                                                                                                                                                                                                                                                                                                                                                                                                                                                                                                                                                                                                                                                                                                                                                                                                                                                                                                                                                                  
                                                                                                                                                