INCAMPRE02LIB00069L1234567000050000026                                     FANDE                                                                                                                                                                                                                                                                                                                                                                                                                                                                                                                                                                                                                                                                                                                                                                                                                                                                                                                                                                                                                                                                                                                                                                                                                       
ISINLI@RHM.ES                                      libreria@example.org                              CAMPRE0200000025                                                                                                                                                                                                                                                                                                                                                                                                                                                                                                                                                                                                                                                                                                                                                                                                                                                                                                                                                                                                                                                                                                                                                                                  
CPENGUIN RANDOM HOUSE GRUPO EDITORIAL    20200710E                                                                                                                                                                                                                                                                                                                                                                                                                                                                                                                                                                                                                                                                                                                                                                                                                                                                                                                                                                                                                                                                                                                                                                                                                                                     
D978-84-18318-20-79788418318207     GT18207        0000001438000000149500400DANIELA DIVERTIGUAY 4.LA CLASE MAS LOCA F                                                                                                                                                                                                                                                                                                                                                                                                                                                                                                                                                                                                                                                                                                                                                                                                                                                                                                                                                                                                                                                                                                                                                                                  
D200-2            2000100175002     X641750        0000013212000001374000400EXPOSITOR (6)-LINEA DE FUEGO            F                                                                                                                                                                                                                                                                                                                                                                                                                                                                                                                                                                                                                                                                                                                                                                                                                                                                                                                                                                                                                                                                                                                                                                                  
                                                                                          