INCAMPRE02LIB00069L1234567000110000452                                     FANDE
ISINLI@RHM.ES                                      libreria@example.org                              CAMPRE0200000451
CPENGUIN RANDOM HOUSE GRUPO EDITORIAL    20240417E
D978-84-10257-08-59788410257085     SL57085        0000002394000000249000400ESNOB (TD)                              F
D200-3            2000100258903     X642589        0000017163000001785000400EXPOSITOR ARTA 7                        F
D200-4            2000100259504     X642595        0000012269000001276000400EXPOSITOR RESCATADORAS 4 (CAST)         F
D200-5            2000100260005     X642600        0000011500000001196000400KIT LIBRERIAS CORNELIA CIRCUS           F
D200-4            2000100260104     X642601        0000012269000001276000400EXPOSITOR RESCATADORAS 4 (CAT)          F
D200-3            2000100266403     X642664        0000016308000001696000400EXPOSITOR POWERLESS                     F
D200-2            2000100266502     X642665        0000013760000001431000400EXPOSITOR LEO CON PEPPA                 F
D200-0            2000100266700     X642667        0000010144000001055000400CAMP ESTIU ROMANTICA CAT                F
