INLIBROS05LIB00069L1234567003320000028                                     FANDE
ISINLI@RHM.ES                                      libreria@example.org                              LIBROS0500000027
CPENGUIN RANDOM HOUSE GRUPO EDITORIAL    E
9788403519510     978-84-03-51951-0                                                   AG1951B        Ichigo-ichie                                                                    Haz de cada instante algo único                                                 GARCIA, HECTOR/MIRALLES, FRANCESC                                                                                                                     ES978-84-0AGUILAR                                   spa01122020019201520209                                                                                                    0100000001625000000169000400FCuerpo y mente                          00000     0000Shttp://images.megustaleer.com/dilve/AG1951B.jpg
9788420486857     978-84-204-8685-7                                                   AL8685C        El libro misterioso                                                                                                                                             CHAMBLAIN, JORIS                                                                                                                                      ES978-84-2ALFAGUARA INFANTILES Y JUVENILES          spa01012021007202100291                                                                                                    0100000001630000000169500400FCereza                                  00000     0000Shttp://images.megustaleer.com/dilve/AL8685C.jpg
9788498722680     978-84-9872-268-0                                                   BB2268B        Las voces del desierto                                                                                                                                          MORGAN, MARLO                                                                                                                                         ES978-84-9B DE BOLSILLO                             spa01012021022401250190821.111-3                                                                                           0100000000861000000089500400FFicción                                 00000     0000Shttp://images.megustaleer.com/dilve/BB2268B.jpg
9788498725902     978-84-9872-590-2                                                   BB2590B        Tormenta de flechas                                                                                                                                             CAMERON, CHRISTIAN                                                                                                                                    ES978-84-9B DE BOLSILLO                             spa01000000057601250190821.111-3                                                                                           0100000001053000000109500400FFicción                                 00000     0000Shttp://images.megustaleer.com/dilve/BB2590B.jpg
9788418132605     978-84-18132-60-5                                                   DB3260A        Diari d'Anne Frank                                                                                                                                              FRANK, ANNE                                                                                                                                           ES978-84-1DEBUTXACA                                 cat01000000038401250190929                                                                                                 0100000000957000000099500400FNarrativa                               00000     0000Shttp://images.megustaleer.com/dilve/DB3260A.jpg
9780241300824     978-0-2413-0082-4                                                   DK00824        ¡A CONDUCIR CON SOPHIE!                                                         Libro infantil de sonidos                                                       VARIOS AUTORES                                                                                                                                        ES978-0-24DK                                        spa01092017001202460247                                                                                                    0100000001341000000139500400FSophie la Girafe                        00000     0000Shttp://images.megustaleer.com/dilve/DK00824.jpg
9780241300992     978-0-2413-0099-2                                                   DK00992        Animales                                                                        El reino animal como nunca antes lo habías visto con increíbles ilustraciones enVARIOS AUTORES                                                                                                                                        ES978-0-24DK                                        spa01012017028802600308                                                                                                    0100000001634000000169900400FConocimiento                            00000     0000Shttp://images.megustaleer.com/dilve/DK00992.jpg
9780241301005     978-0-2413-0100-5                                                   DK01012        De la maceta al plato                                                                                                                                           VARIOS AUTORES                                                                                                                                        ES978-0-24DK                                        spa01032017000002030240                                                                                                    0100000001913000000199000400FEstilo de vida                          00000     0000Shttp://images.megustaleer.com/dilve/DK01012.jpg
9780241301029     978-0-2413-0102-9                                                   DK01029        Mi gran show de magia                                                           Trucos geniales paso a paso                                                     VARIOS AUTORES                                                                                                                                        ES978-0-24DK                                        spa01012017000002240287                                                                                                    0100000001918000000199500400FHobbies                                 00000     0000Shttp://images.megustaleer.com/dilve/DK01029.jpg
9780241301166     978-0-2413-0116-6                                                   DK01166        En marcha con Sophie                                                                                                                                            VARIOS AUTORES                                                                                                                                        ES978-0-24DK                                        spa01022017001401360136                                                                                                    0100000000668000000069500400FSophie la Girafe                        00000     0000Shttp://images.megustaleer.com/dilve/DK01166.jpg
9780241301173     978-0-2413-0117-3                                                   DK01173        A dormir, Sophie                                                                                                                                                VARIOS AUTORES                                                                                                                                        ES978-0-24DK                                        spa01022017001201360137                                                                                                    0100000000668000000069500400FSophie la Girafe                        00000     0000Shttp://images.megustaleer.com/dilve/DK01173.jpg
9780241301715     978-0-2413-0171-5                                                   DK01715        Pintura. Técncias Artísticas                                                    Técnicas artísticas                                                             VARIOS AUTORES                                                                                                                                        ES978-0-24DK                                        spa01052017027202210262                                                                                                    0100000002298000000239000400FEstilo de vida                          00000     0000Shttp://images.megustaleer.com/dilve/DK01715.jpg
9780241302330     978-0-2413-0233-0                                                   DK02330        Big History                                                                     El apasionante viaje que nos ha llevado desde el origen del tiempo hasta la revoVARIOS AUTORES                                                                                                                                        ES978-0-24DK                                        spa01092017044002630309                                                                                                    0100000002875000000299000400FGran formato                            00000     0000Shttp://images.megustaleer.com/dilve/DK02330.jpg
9780241302347     978-0-2413-0234-7                                                   DK02347        Medicina                                                                        La historia visual definitiva                                                   VARIOS AUTORES                                                                                                                                        ES978-0-24DK                                        spa01082017028802600308                                                                                                    0100000002875000000299000400FGran formato                            00000     0000Shttp://images.megustaleer.com/dilve/DK02347.jpg
9780241302354     978-0-2413-0235-4                                                   DK02354        Estrellas                                                                       La guía visual definitiva del cosmos                                            VARIOS AUTORES                                                                                                                                        ES978-0-24DK                                        spa01092017025602610309                                                                                                    0100000001922000000199900400FGran formato                            00000     0000Shttp://images.megustaleer.com/dilve/DK02354.jpg
9780241302361     978-0-2413-0236-1                                                   DK02361        English for Everyone - Gramática inglesa                                                                                                                                                                                                                                                                              ES978-0-24DK                                        spa01032017036002050240                                                                                                    0100000001918000000199500400FEnglish for everyone                    00000     0000Shttp://images.megustaleer.com/dilve/DK02361.jpg
9780241302378     978-0-2413-0237-8                                                   DK02378        EFE Business English Nivel intermedio - Libro de estudio                                                                                                        VARIOS AUTORES                                                                                                                                        ES978-0-24DK                                        spa01042017019202010240                                                                                                    0100000001918000000199500400FEnglish for everyone                    00000     0000Shttp://images.megustaleer.com/dilve/DK02378.jpg
9780241302392     978-0-2413-0239-2                                                   DK02392        EFE Business English Nivel intermedio - Libro de ejercicios                                                                                                     VARIOS AUTORES                                                                                                                                        ES978-0-24DK                                        spa01042017017601950232                                                                                                    0100000001534000000159500400FEnglish for everyone                    00000     0000Shttp://images.megustaleer.com/dilve/DK02392.jpg
9780241302408     978-0-2413-0240-8                                                   DK02408        EFE Business English Nivel inicial - Libro de estudio                                                                                                           VARIOS AUTORES                                                                                                                                        ES978-0-24DK                                        spa01042017019202020240                                                                                                    0100000001918000000199500400FEnglish for everyone                    00000     0000Shttp://images.megustaleer.com/dilve/DK02408.jpg
9780241302415     978-0-2413-0241-5                                                   DK02415        EFE Business English Nivel inicial - Libro de ejercicios                                                                                                        VARIOS AUTORES                                                                                                                                        ES978-0-24DK                                        spa01042017017601950233                                                                                                    0100000001534000000159500400FEnglish for everyone                    00000     0000Shttp://images.megustaleer.com/dilve/DK02415.jpg
9780241302910     978-0-2413-0291-0                                                   DK02910        MARVEL. Todo lo que siempre quisiste saber                                                                                                                      VARIOS AUTORES                                                                                                                                        ES978-0-24DK                                        spa01012017024002360283                                                                                                    0100000002111000000219500400FMarvel                                  00000     0000Shttp://images.megustaleer.com/dilve/DK02910.jpg
9780241302934     978-0-2413-0293-4                                                   DK02934        Rogue One                                                                       La guía visual definitiva                                                       VARIOS AUTORES                                                                                                                                        ES978-0-24DK                                        spa01122016020002600308                                                                                                    0100000002399000000249500400FStar Wars                               00000     0000Shttp://images.megustaleer.com/dilve/DK02934.jpg
9780241303351     978-0-2413-0335-1                                                   DK03351        LEGO® DC Comics. Super Héroes la Superguía                                                                                                                      VARIOS AUTORES                                                                                                                                        ES978-0-24DK                                        spa01072017009602340280                                                                                                    0100000001822000000189500400FLEGO | DC Superheroes                   00000     0000Shttp://images.megustaleer.com/dilve/DK03351.jpg
9780241303368     978-0-2413-0336-8                                                   DK03368        DC Comics La enciclopedia                                                       La guía definitiva de los personajes del universo DC                            MANNING, MATTEW                                                                                                                                       ES978-0-24DK                                        spa01092017036802590308                                                                                                    0100000002880000000299500400FDC Cómics                               00000     0000Shttp://images.megustaleer.com/dilve/DK03368.jpg
9780241303375     978-0-2413-0337-5                                                   DK03375        Marvel Crónica Visual Definitiva                                                Actualizada y Ampliada                                                          LEE, STAN/DK                                                                                                                                          ES978-0-24DK                                        spa01092017046402660323                                                                                                    0100000002880000000299500400FMarvel                                  00000     0000Shttp://images.megustaleer.com/dilve/DK03375.jpg
9780241303382     978-0-2413-0338-2                                                   DK03382        Mi gran libro de Star Wars                                                                                                                                      VARIOS AUTORES                                                                                                                                        ES978-0-24DK                                        spa01032017004802370284                                                                                                    0100000001630000000169500400FStar Wars                               00000     0000Shttp://images.megustaleer.com/dilve/DK03382.jpg
9780241303399     978-0-2413-0339-9                                                   DK03399        Mi gran libro de Disney Princesas                                                                                                                               VARIOS AUTORES                                                                                                                                        ES978-0-24DK                                        spa01042017004802350282                                                                                                    0100000001630000000169500400FDisney                                  00000     0000Shttp://images.megustaleer.com/dilve/DK03399.jpg
9780241303405     978-0-2413-0340-5                                                   DK03405        365 ideas para construir con ladrillos LEGO®                                    Diversión LEGO cada día del año                                                 LIPKOWITZ, DANIEL                                                                                                                                     ES978-0-24DK                                        spa01032017025602390282                                                                                                    0100000002394000000249000400FLEGO                                    00000     0000Shttp://images.megustaleer.com/dilve/DK03405.jpg
9780241404065     978-0-2414-0406-5                                                   DK04065        English for Everyone: Idioms                                                    Modismos y expresiones idiomáticas del inglés                                                                                                                                                                                         ES978-0-24DK                                        spa01072019025602030239                                                                                                    0100000001726000000179500400FEnglish for everyone                    00000     0000Shttp://images.megustaleer.com/dilve/DK04065.jpg
9780241006870     0241006870                                                          DK06870        LEGO® Más ideas para jugar                                                                                                                                      LIPKOWITZ, DANIEL                                                                                                                                     ES02410068DK                                        spa05032015020002340280                                                                                                    0100000001913000000199000400FLEGO                                    00000     0000Shttp://images.megustaleer.com/dilve/DK06870.jpg
9780241006887     0241006887                                                          DK06887        LEGO® STAR WARS, EL DICCIONARIO VISUAL                                                                                                                          VARIOS AUTORES                                                                                                                                        ES02410068DK                                        spa06052015000002580308                                                                                                    0100000001913000000199000400FLEGO | Star Wars                        00000     0000Shttp://images.megustaleer.com/dilve/DK06887.jpg
9780241307595     978-0-2413-0759-5                                                   DK07595        Superalimentos para una vida sana                                               Prólogo del Chef Gonzalo D'Ambrosio                                             VARIOS AUTORES                                                                                                                                        ES978-0-24DK                                        spa01032017030402210262                                                                                                    0100000001913000000199000400FCocina                                  00000     0000Shttp://images.megustaleer.com/dilve/DK07595.jpg
9780241011980     0241011980                                                          DK11980        Psicología para mentes inquietas                                                                                                                                VARIOS AUTORES                                                                                                                                        ES02410119DK                                        spa04032015016001890242                                                                                                    0100000001625000000169000400FConocimiento                            00000     0000Shttp://images.megustaleer.com/dilve/DK11980.jpg
9780241312360     978-0-2413-1236-0                                                   DK12360        Economía para mentes inquietas                                                                                                                                  VARIOS AUTORES                                                                                                                                        ES978-0-24DK                                        spa01052017016001910243                                                                                                    0100000001625000000169000400FConocimiento                            00000     0000Shttp://images.megustaleer.com/dilve/DK12360.jpg
9780241312377     978-0-2413-1237-7                                                   DK12377        ¡No te lo vas a creer!                                                                                                                                          VARIOS AUTORES                                                                                                                                        ES978-0-24DK                                        spa01082017019202240282                                                                                                    0100000001630000000169500400FConocimiento                            00000     0000Shttp://images.megustaleer.com/dilve/DK12377.jpg
9780241312407     978-0-2413-1240-7                                                   DK12407        Un laboratorio en casa                                                          Grandes experimentos para futuros científicos                                   WINSTON, ROBERT                                                                                                                                       ES978-0-24DK                                        spa01082017016002240284                                                                                                    0100000001634000000169900400FConocimiento                            00000     0000Shttp://images.megustaleer.com/dilve/DK12407.jpg
9780241312414     978-0-2413-1241-4                                                   DK12414        El libro de la Tabla Periódica                                                                                                                                  VARIOS AUTORES                                                                                                                                        ES978-0-24DK                                        spa01092017020802250282                                                                                                    0100000001634000000169900400FAprendizaje y desarrollo                00000     0000Shttp://images.megustaleer.com/dilve/DK12414.jpg
9780241012482     0241012482                                                          DK12482        Ganchillo. Guía completa paso a paso                                                                                                                                                                                                                                                                                  ES02410124DK                                        spa04032015032002350283                                                                                                    0100000002298000000239000400FEstilo de vida                          00000     0000Shttp://images.megustaleer.com/dilve/DK12482.jpg
9780241413067     978-0-2414-1306-7                                                   DK13067        LEGO® Cuentos para construir y soñar                                            ¡Construye, lee y sueña una aventura!                                           VARIOS AUTORES                                                                                                                                        ES978-0-24DK                                        spa01092019004801920248                                                                                                    0100000001625000000169000400FLEGO                                    00000     0000Shttp://images.megustaleer.com/dilve/DK13067.jpg
9780241413074     978-0-2414-1307-4                                                   DK13074        Marvel. La enciclopedia                                                         Prólogo de Stan Lee                                                             LEE, STAN/BRAY, ADAM/DK                                                                                                                               ES978-0-24DK                                        spa01092019044802620306                                                                                                    0100000002875000000299000400FMarvel                                  00000     0000Shttp://images.megustaleer.com/dilve/DK13074.jpg
9780241413180     978-0-2414-1318-0                                                   DK13180        Bebé conejo. Sonidos de la granja                                                                                                                               VARIOS AUTORES                                                                                                                                        ES978-0-24DK                                        spa01062019001202470246                                                                                                    0100000001240000000129000400FPreescolar                              00000     0000Shttp://images.megustaleer.com/dilve/DK13180.jpg
9780241313336     978-0-2413-1333-6                                                   DK13336        Gira y aprende: Tablas de Multiplicar                                                                                                                           VARIOS AUTORES                                                                                                                                        ES978-0-24DK                                        spa01082017001802240282                                                                                                    0100000001534000000159500400FAprendizaje y desarrollo                00000     0000Shttp://images.megustaleer.com/dilve/DK13336.jpg
9780241313343     978-0-2413-1334-3                                                   DK13343        Bebé Dinosaurio                                                                 Libro infantil con sonidos                                                      VARIOS AUTORES                                                                                                                                        ES978-0-24DK                                        spa01082017001202480246                                                                                                    0100000001240000000129000400FPreescolar                              00000     0000Shttp://images.megustaleer.com/dilve/DK13343.jpg
9780241414347     978-0-2414-1434-7                                                   DK14347        Cómo funciona la ciencia                                                                                                                                        VARIOS AUTORES                                                                                                                                        ES978-0-24DK                                        spa01092019025602030241                                                                                                    0100000001913000000199000400FConocimiento                            00000     0000Shttp://images.megustaleer.com/dilve/DK14347.jpg
9780241414361     978-0-2414-1436-1                                                   DK14361        Mujeres: nuestra historia                                                                                                                                       VARIOS AUTORES                                                                                                                                        ES978-0-24DK                                        spa01082019032002600308                                                                                                    0100000002875000000299000400FGran formato                            00000     0000Shttp://images.megustaleer.com/dilve/DK14361.jpg
9780241414385     978-0-2414-1438-5                                                   DK14385        Flora                                                                           El mundo secreto de las plantas                                                 VARIOS AUTORES                                                                                                                                        ES978-0-24DK                                        spa01082019044002580302                                                                                                    0100000002875000000299000400FGran formato                            00000     0000Shttp://images.megustaleer.com/dilve/DK14385.jpg
9780241414392     978-0-2414-1439-2                                                   DK14392        Historia del mundo mapa a mapa                                                                                                                                  VARIOS AUTORES                                                                                                                                        ES978-0-24DK                                        spa01102019036002630309                                                                                                    0100000002875000000299000400FGran formato                            00000     0000Shttp://images.megustaleer.com/dilve/DK14392.jpg
9780241414415     978-0-2414-1441-5                                                   DK14415        Escritores                                                                      Su vida y sus obras                                                             VARIOS AUTORES                                                                                                                                        ES978-0-24DK                                        spa01082019036002600307                                                                                                    0100000002875000000299000400FGran formato                            00000     0000Shttp://images.megustaleer.com/dilve/DK14415.jpg
9780241414422     978-0-2414-1442-2                                                   DK14422        ¿Dónde vivieron los dinosaurios?                                                                                                                                VARIOS AUTORES                                                                                                                                        ES978-0-24DK                                        spa01082019016002560307                                                                                                    0100000001822000000189500400FAprendizaje y desarrollo                00000     0000Shttp://images.megustaleer.com/dilve/DK14422.jpg
9780241414453     978-0-2414-1445-3                                                   DK14453        A través del tiempo                                                                                                                                             VARIOS AUTORES                                                                                                                                        ES978-0-24DK                                        spa01082019032002580308                                                                                                    0100000002111000000219500400FAprendizaje y desarrollo                00000     0000Shttp://images.megustaleer.com/dilve/DK14453.jpg
9780241414507     978-0-2414-1450-7                                                   DK14507        Superinsectos                                                                                                                                                   VARIOS AUTORES                                                                                                                                        ES978-0-24DK                                        spa01082019020802590305                                                                                                    0100000001822000000189500400FAprendizaje y desarrollo                00000     0000Shttp://images.megustaleer.com/dilve/DK14507.jpg
9780241414729     978-0-2414-1472-9                                                   DK14729        Anatomía del yoga                                                               Un estudio fisiológico postura a postura                                        SWANSON, ANN                                                                                                                                          ES978-0-24DK                                        spa01082019022402040238                                                                                                    0100000002399000000249500400FEstilo de vida                          00000     0000Shttp://images.megustaleer.com/dilve/DK14729.jpg
9780241414736     978-0-2414-1473-6                                                   DK14736        Antología de animales extraordinarios                                                                                                                           HOARE, BEN                                                                                                                                            ES978-0-24DK                                        spa01082019022402240282                                                                                                    0100000001918000000199500400FAprendizaje y desarrollo                00000     0000Shttp://images.megustaleer.com/dilve/DK14736.jpg
9780241316436     978-0-2413-1643-6                                                   DK16436        LEGO® Star Wars Construye tu propia aventura                                                                                                                    VARIOS AUTORES                                                                                                                                        ES978-0-24DK                                        spa01092017008002230273                                                                                                    0100000002111000000219500400FLEGO | Star Wars                        00000     0000Shttp://images.megustaleer.com/dilve/DK16436.jpg
9780241216606     978-0-2412-1660-6                                                   DK16606        Filosofía para mentes inquietas                                                                                                                                 VARIOS AUTORES                                                                                                                                        ES978-0-24DK                                        spa01082015016001890240                                                                                                    0100000001625000000169000400FConocimiento                            00000     0000Shttp://images.megustaleer.com/dilve/DK16606.jpg
9780241216620     978-0-2412-1662-0                                                   DK16620        Fotografía                                                                      La Historia Visual Definitiva                                                   ANG, TOM                                                                                                                                              ES978-0-24DK                                        spa01082015048002620309                                                                                                    0100000002875000000299000400FGran formato                            00000     0000Shttp://images.megustaleer.com/dilve/DK16620.jpg
9780241216637     978-0-2412-1663-7                                                   DK16637        Planetas                                                                        La guía definitiva del Sistema Solar                                            VARIOS AUTORES                                                                                                                                        ES978-0-24DK                                        spa01092015025602580308                                                                                                    0100000001922000000199900400FGran formato                            00000     0000Shttp://images.megustaleer.com/dilve/DK16637.jpg
9780241217122     978-0-2412-1712-2                                                   DK17122        Batman: La historia visual                                                                                                                                      DK                                                                                                                                                    ES978-0-24DK                                        spa01092015035202630322                                                                                                    0100000002875000000299000400FDC Cómics                               00000     0000Shttp://images.megustaleer.com/dilve/DK17122.jpg
9780241217139     978-0-2412-1713-9                                                   DK17139        LEGO Ninjago Diccionario visual                                                                                                                                 VARIOS AUTORES                                                                                                                                        ES978-0-24DK                                        spa01082015009602590308                                                                                                    0100000001913000000199000400FLEGO                                    00000     0000Shttp://images.megustaleer.com/dilve/DK17139.jpg
9780241217184     978-0-2412-1718-4                                                   DK17184        Magia para niños                                                                                                                                                VARIOS AUTORES                                                                                                                                        ES978-0-24DK                                        spa01092015012802590307                                                                                                    0100000001634000000169900400FHobbies                                 00000     0000Shttp://images.megustaleer.com/dilve/DK17184.jpg
9780241419458     978-0-2414-1945-8                                                   DK19458        Guía Visual Japón                                                                                                                                               VARIOS AUTORES                                                                                                                                        ES978-0-24DK                                        spa01082019035201260217                                                                                                    0100000002880000000299500400FGuías visuales                          00000     0000Shttp://images.megustaleer.com/dilve/DK19458.jpg
9780241419465     978-0-2414-1946-5                                                   DK19465        Guía Visual Londres                                                                                                                                             VARIOS AUTORES                                                                                                                                        ES978-0-24DK                                        spa01072019035201260217                                                                                                    0100000002880000000299500400FGuías visuales                          00000     0000Shttp://images.megustaleer.com/dilve/DK19465.jpg
9780241419472     978-0-2414-1947-2                                                   DK19472        Guía Visual Nueva York                                                                                                                                          VARIOS AUTORES                                                                                                                                        ES978-0-24DK                                        spa01072019032801250217                                                                                                    0100000002880000000299500400FGuías visuales                          00000     0000Shttp://images.megustaleer.com/dilve/DK19472.jpg
9780241419489     978-0-2414-1948-9                                                   DK19489        Guía Visual Roma                                                                                                                                                VARIOS AUTORES                                                                                                                                        ES978-0-24DK                                        spa01072019000001260217                                                                                                    0100000002880000000299500400FGuías visuales                          00000     0000Shttp://images.megustaleer.com/dilve/DK19489.jpg
9780241419496     978-0-2414-1949-6                                                   DK19496        Guía Visual París                                                                                                                                               VARIOS AUTORES                                                                                                                                        ES978-0-24DK                                        spa01072019032801260217                                                                                                    0100000002880000000299500400FGuías visuales                          00000     0000Shttp://images.megustaleer.com/dilve/DK19496.jpg
9780241419502     978-0-2414-1950-2                                                   DK19502        Guía Visual Berlín                                                                                                                                              VARIOS AUTORES                                                                                                                                        ES978-0-24DK                                        spa01072019028801250217                                                                                                    0100000002880000000299500400FGuías visuales                          00000     0000Shttp://images.megustaleer.com/dilve/DK19502.jpg
9780241320082     978-02-4132-008-2                                                   DK20082        El libro de la Bicicleta                                                        La Historia Visual Definitiva                                                   VARIOS AUTORES                                                                                                                                        ES978-02-4DK                                        spa01092017025602590308                                                                                                    0100000002298000000239000400FGran formato                            00000     0000Shttp://images.megustaleer.com/dilve/DK20082.jpg
9780241420539     978-0-2414-2053-9                                                   DK20539        DINOSAURIOS                                                                     Más de 60 criaturas prehistóricas como nunca antes las habías visto             VARIOS AUTORES                                                                                                                                        ES978-0-24DK                                        spa01092019020802600306                                                                                                    0100000001634000000169900400FConocimiento                            00000     0000Shttp://images.megustaleer.com/dilve/DK20539.jpg
9780241420546     978-0-2414-2054-6                                                   DK20546        Introducción a la programación informática                                                                                                                      VORDERMAN, CAROL                                                                                                                                      ES978-0-24DK                                        spa01102019022402020238                                                                                                    0100000001913000000199000400FAprendizaje y desarrollo                00000     0000Shttp://images.megustaleer.com/dilve/DK20546.jpg
9780241420553     978-0-2414-2055-3                                                   DK20553        Programa tus juegos con Scratch                                                                                                                                 VORDERMAN, CAROL                                                                                                                                      ES978-0-24DK                                        spa01102019022402010239                                                                                                    0100000001913000000199000400FAprendizaje y desarrollo                00000     0000Shttp://images.megustaleer.com/dilve/DK20553.jpg
9780241420560     978-0-2414-2056-0                                                   DK20560        Moda. Historia y estilos                                                                                                                                        VARIOS AUTORES                                                                                                                                        ES978-0-24DK                                        spa01102019048002630310                                                                                                    0100000002875000000299000400FGran formato                            00000     0000Shttp://images.megustaleer.com/dilve/DK20560.jpg
9780241420577     978-0-2414-2057-7                                                   DK20577        Ayuda a tus hijos con las matemáticas                                                                                                                           VARIOS AUTORES                                                                                                                                        ES978-0-24DK                                        spa01082019026402020238                                                                                                    0100000001913000000199000400FAprendizaje y desarrollo                00000     0000Shttp://images.megustaleer.com/dilve/DK20577.jpg
9780241420584     978-0-2414-2058-4                                                   DK20584        Universo Star Wars                                                              Nueva edición                                                                   VARIOS AUTORES/BRAY, ADAM                                                                                                                             ES978-0-24DK                                        spa01112019035202650322                                                                                                    0100000002875000000299000400FStar Wars                               00000     0000Shttp://images.megustaleer.com/dilve/DK20584.jpg
9780241320600     978-02-4132-060-0                                                   DK20600        Star Wars La Enciclopedia Visual                                                                                                                                VARIOS AUTORES                                                                                                                                        ES978-02-4DK                                        spa01082017020002600307                                                                                                    0100000002875000000299000400FStar Wars                               00000     0000Shttp://images.megustaleer.com/dilve/DK20600.jpg
9780241326688     978-02-4132-668-8                                                   DK26688        Cómo no matar tus plantas                                                       Consejos y cuidados para que tus plantas sobrevivan                             VARIOS AUTORES                                                                                                                                        ES978-02-4DK                                        spa01012018014402020242                                                                                                    0100000001630000000169500400FEstilo de vida                          00000     0000Shttp://images.megustaleer.com/dilve/DK26688.jpg
9780241326824     978-02-4132-682-4                                                   DK26824        Manual completo de la bicicleta                                                 Reparación y mantenimiento en pasos sencillos                                   VARIOS AUTORES                                                                                                                                        ES978-02-4DK                                        spa01012018022402020239                                                                                                    0100000001918000000199500400FEstilo de vida                          00000     0000Shttp://images.megustaleer.com/dilve/DK26824.jpg
9780241326831     978-02-4132-683-1                                                   DK26831        Cuerpo humano                                                                   Como nunca antes lo habías visto                                                VARIOS AUTORES                                                                                                                                        ES978-02-4DK                                        spa01012018020802620308                                                                                                    0100000001634000000169900400FConocimiento                            00000     0000Shttp://images.megustaleer.com/dilve/DK26831.jpg
9780241326862     978-02-4132-686-2                                                   DK26862        Sociología para mentes inquietas                                                                                                                                VARIOS AUTORES                                                                                                                                        ES978-02-4DK                                        spa01052018016001900240                                                                                                    0100000001625000000169000400FConocimiento                            00000     0000Shttp://images.megustaleer.com/dilve/DK26862.jpg
9780241326879     978-02-4132-687-9                                                   DK26879        Artistas                                                                        Su vida y sus obras                                                             VARIOS AUTORES                                                                                                                                        ES978-02-4DK                                        spa01082018036002600308                                                                                                    0100000002875000000299000400FGran formato                            00000     0000Shttp://images.megustaleer.com/dilve/DK26879.jpg
9780241326886     978-02-4132-688-6                                                   DK26886        Secretos de la naturaleza                                                                                                                                       VARIOS AUTORES                                                                                                                                        ES978-02-4DK                                        spa01082018000002600308                                                                                                    0100000002394000000249000400FConocimiento                            00000     0000Shttp://images.megustaleer.com/dilve/DK26886.jpg
9780241326893     978-02-4132-689-3                                                   DK26893        La aventura de viajar                                                                                                                                           VARIOS AUTORES                                                                                                                                        ES978-02-4DK                                        spa01082018036002620308                                                                                                    0100000002875000000299000400FGran formato                            00000     0000Shttp://images.megustaleer.com/dilve/DK26893.jpg
9780241326909     978-02-4132-690-9                                                   DK26909        Maravillas del mundo natural                                                                                                                                    VARIOS AUTORES                                                                                                                                        ES978-02-4DK                                        spa01082018044002610310                                                                                                    0100000002875000000299000400FGran formato                            00000     0000Shttp://images.megustaleer.com/dilve/DK26909.jpg
9780241327715     978-02-4132-771-5                                                   DK27715        Star Wars Mundos y Escenarios                                                                                                                                   VARIOS AUTORES                                                                                                                                        ES978-02-4DK                                        spa01092017019202620323                                                                                                    0100000002591000000269500400FStar Wars                               00000     0000Shttp://images.megustaleer.com/dilve/DK27715.jpg
9780241430224     978-0-2414-3022-4                                                   DK30224        Frozen II: La guía oficial                                                                                                                                      VARIOS AUTORES                                                                                                                                        ES978-0-24DK                                        spa01102019009601910282                                                                                                    0100000001630000000169500400FDisney                                  00000     0000Shttp://images.megustaleer.com/dilve/DK30224.jpg
9780241430231     978-0-2414-3023-1                                                   DK30231        Star Wars: El ascenso de Skywalker                                              El diccionario visual                                                           VARIOS AUTORES                                                                                                                                        ES978-0-24DK                                        spa01122019020002580307                                                                                                    0100000002394000000249000400FStar Wars                               00000     0000Shttp://images.megustaleer.com/dilve/DK30231.jpg
9780241430668     978-0-2414-3066-8                                                   DK30668        ¡Cuenta conmigo! 1 2 3                                                                                                                                          LAMBERT, JONNY                                                                                                                                        ES978-0-24DK                                        spa01022020002402180217                                                                                                    0100000001144000000119000400FPreescolar                              00000     0000Shttp://images.megustaleer.com/dilve/DK30668.jpg
9780241431382     978-0-2414-3138-2                                                   DK31382        Guía Visual Ámsterdam                                                                                                                                           VARIOS AUTORES                                                                                                                                        ES978-0-24DK                                        spa01012020024001260216                                                                                                    0100000002880000000299500400FGuías visuales                          00000     0000Shttp://images.megustaleer.com/dilve/DK31382.jpg
9780241331965     978-0-2413-3196-5                                                   DK31965        El gran libro del cuerpo humano.                                                La guía visual definitiva actualizada y ampliada, segunda edición               VARIOS AUTORES                                                                                                                                        ES978-0-24DK                                        spa01092017052802580309                                                                                                    0100000002875000000299000400FConocimiento                            00000     0000Shttp://images.megustaleer.com/dilve/DK31965.jpg
9780241432440     978-0-2414-3244-0                                                   DK32440        Historia                                                                                                                                                        VARIOS AUTORES                                                                                                                                        ES978-0-24DK                                        spa01022020020802600308                                                                                                    0100000001634000000169900400FConocimiento                            00000     0000Shttp://images.megustaleer.com/dilve/DK32440.jpg
9780241432457     978-0-2414-3245-7                                                   DK32457        Programa tus proyectos con Scratch 3.0                                                                                                                          VORDERMAN, CAROL                                                                                                                                      ES978-0-24DK                                        spa01012020022402030238                                                                                                    0100000001913000000199000400FAprendizaje y desarrollo                00000     0000Shttp://images.megustaleer.com/dilve/DK32457.jpg
9780241432464     978-0-2414-3246-4                                                   DK32464        Ilusiones visuales increíbles                                                                                                                                   VARIOS AUTORES                                                                                                                                        ES978-0-24DK                                        spa01012020003202240283                                                                                                    0100000001913000000199000400FHobbies                                 00000     0000Shttp://images.megustaleer.com/dilve/DK32464.jpg
9780241432488     978-0-2414-3248-8                                                   DK32488        English for Everyone - Gramática inglesa - Libro de ejercicios                                                                                                  VARIOS AUTORES                                                                                                                                        ES978-0-24DK                                        spa01012020032001960233                                                                                                    0100000001822000000189500400FEnglish for everyone                    00000     0000Shttp://images.megustaleer.com/dilve/DK32488.jpg
9780241432495     978-0-2414-3249-5                                                   DK32495        Mitos y leyendas                                                                                                                                                VARIOS AUTORES                                                                                                                                        ES978-0-24DK                                        spa01012020035201960233                                                                                                    0100000002394000000249000400FConocimiento                            00000     0000Shttp://images.megustaleer.com/dilve/DK32495.jpg
9780241432648     978-0-2414-3264-8                                                   DK32648        Guía Visual Camboya y Laos                                                                                                                                      VARIOS AUTORES                                                                                                                                        ES978-0-24DK                                        spa01012020024801260217                                                                                                    0100000002880000000299500400FGuías visuales                          00000     0000Shttp://images.megustaleer.com/dilve/DK32648.jpg
9780241432655     978-0-2414-3265-5                                                   DK32655        Guía Visual Canadá                                                                                                                                              VARIOS AUTORES                                                                                                                                        ES978-0-24DK                                        spa01012020040001260216                                                                                                    0100000002880000000299500400FGuías visuales                          00000     0000Shttp://images.megustaleer.com/dilve/DK32655.jpg
9780241432662     978-0-2414-3266-2                                                   DK32662        Guía Visual Costa Rica                                                                                                                                          VARIOS AUTORES                                                                                                                                        ES978-0-24DK                                        spa01012020027201260217                                                                                                    0100000002880000000299500400FGuías visuales                          00000     0000Shttp://images.megustaleer.com/dilve/DK32662.jpg
9780241432686     978-0-2414-3268-6                                                   DK32686        Guía Visual Cuba                                                                                                                                                VARIOS AUTORES                                                                                                                                        ES978-0-24DK                                        spa01012020028801270216                                                                                                    0100000002880000000299500400FGuías visuales                          00000     0000Shttp://images.megustaleer.com/dilve/DK32686.jpg
9780241432693     978-0-2414-3269-3                                                   DK32693        Guía Visual Escocia                                                                                                                                             VARIOS AUTORES                                                                                                                                        ES978-0-24DK                                        spa01012020022401270217                                                                                                    0100000002596000000270000400FGuías visuales                          00000     0000Shttp://images.megustaleer.com/dilve/DK32693.jpg
9780241432709     978-0-2414-3270-9                                                   DK32709        Guía Visual Islas griegas                                                                                                                                       VARIOS AUTORES                                                                                                                                        ES978-0-24DK                                        spa01012020032001260216                                                                                                    0100000002880000000299500400FGuías visuales                          00000     0000Shttp://images.megustaleer.com/dilve/DK32709.jpg
9780241432716     978-0-2414-3271-6                                                   DK32716        Guía Visual Italia                                                                                                                                              VARIOS AUTORES                                                                                                                                        ES978-0-24DK                                        spa01012020056001260216                                                                                                    0100000003173000000330000400FGuías visuales                          00000     0000Shttp://images.megustaleer.com/dilve/DK32716.jpg
9780241432723     978-0-2414-3272-3                                                   DK32723        Guía Visual Irlanda                                                                                                                                             VARIOS AUTORES                                                                                                                                        ES978-0-24DK                                        spa01012020032001260216                                                                                                    0100000002880000000299500400FGuías visuales                          00000     0000Shttp://images.megustaleer.com/dilve/DK32723.jpg
9780241432730     978-0-2414-3273-0                                                   DK32730        Guía Visual Jerusalén, Israel, Territorios Palestinos y Jordania                                                                                                VARIOS AUTORES                                                                                                                                        ES978-0-24DK                                        spa01012020028801250217                                                                                                    0100000002880000000299500400FGuías visuales                          00000     0000Shttp://images.megustaleer.com/dilve/DK32730.jpg
9780241432754     978-0-2414-3275-4                                                   DK32754        Guía Visual Noruega                                                                                                                                             VARIOS AUTORES                                                                                                                                        ES978-0-24DK                                        spa01012020027201270216                                                                                                    0100000002880000000299500400FGuías visuales                          00000     0000Shttp://images.megustaleer.com/dilve/DK32754.jpg
9780241432761     978-0-2414-3276-1                                                   DK32761        Guía Visual Perú                                                                                                                                                VARIOS AUTORES                                                                                                                                        ES978-0-24DK                                        spa01012020028801260216                                                                                                    0100000002880000000299500400FGuías visuales                          00000     0000Shttp://images.megustaleer.com/dilve/DK32761.jpg
9780241432778     978-0-2414-3277-8                                                   DK32778        Guía Visual Polonia                                                                                                                                             VARIOS AUTORES                                                                                                                                        ES978-0-24DK                                        spa01012020033601260216                                                                                                    0100000002880000000299500400FGuías visuales                          00000     0000Shttp://images.megustaleer.com/dilve/DK32778.jpg
9780241432785     978-0-2414-3278-5                                                   DK32785        Guía Visual Portugal                                                                                                                                            VARIOS AUTORES                                                                                                                                        ES978-0-24DK                                        spa01012020040001270216                                                                                                    0100000002880000000299500400FGuías visuales                          00000     0000Shttp://images.megustaleer.com/dilve/DK32785.jpg
9780241432792     978-0-2414-3279-2                                                   DK32792        Guía Visual Provenza y Costa Azul                                                                                                                               VARIOS AUTORES                                                                                                                                        ES978-0-24DK                                        spa01012020022401260217                                                                                                    0100000002880000000299500400FGuías visuales                          00000     0000Shttp://images.megustaleer.com/dilve/DK32792.jpg
9780241432808     978-0-2414-3280-8                                                   DK32808        Guía Visual Suiza                                                                                                                                               VARIOS AUTORES                                                                                                                                        ES978-0-24DK                                        spa01012020028801270215                                                                                                    0100000002880000000299500400FGuías visuales                          00000     0000Shttp://images.megustaleer.com/dilve/DK32808.jpg
9780241432815     978-0-2414-3281-5                                                   DK32815        Guía Visual Tailandia                                                                                                                                           VARIOS AUTORES                                                                                                                                        ES978-0-24DK                                        spa01022020041601270216                                                                                                    0100000002880000000299500400FGuías visuales                          00000     0000Shttp://images.megustaleer.com/dilve/DK32815.jpg
9780241432822     978-0-2414-3282-2                                                   DK32822        Guía Visual Vietnam                                                                                                                                             VARIOS AUTORES                                                                                                                                        ES978-0-24DK                                        spa01012020026401260217                                                                                                    0100000002880000000299500400FGuías visuales                          00000     0000Shttp://images.megustaleer.com/dilve/DK32822.jpg
9780241432839     978-0-2414-3283-9                                                   DK32839        Guía Top 10 Algarve                                                             La guía que descubre lo mejor de cada ciudad                                    VARIOS AUTORES                                                                                                                                        ES978-0-24DK                                        spa01012020014401020190                                                                                                    0100000001245000000129500400FGuías Top10                             00000     0000Shttp://images.megustaleer.com/dilve/DK32839.jpg
9780241432846     978-0-2414-3284-6                                                   DK32846        Guía Visual Top 10 Atenas                                                       La guía que descubre lo mejor de cada ciudad                                    VARIOS AUTORES                                                                                                                                        ES978-0-24DK                                        spa01122019016001020190                                                                                                    0100000001245000000129500400FGuías Top10                             00000     0000Shttp://images.megustaleer.com/dilve/DK32846.jpg
9780241432853     978-0-2414-3285-3                                                   DK32853        Guía Top 10 Berlín                                                              La guía que descubre lo mejor de cada ciudad                                    VARIOS AUTORES                                                                                                                                        ES978-0-24DK                                        spa01012020019201020190                                                                                                    0100000001245000000129500400FGuías Top10                             00000     0000Shttp://images.megustaleer.com/dilve/DK32853.jpg
9780241432884     978-0-2414-3288-4                                                   DK32884        Guía Top 10 Bruselas                                                            La guía que descubre lo mejor de cada ciudad                                    VARIOS AUTORES                                                                                                                                        ES978-0-24DK                                        spa01012020014401020191                                                                                                    0100000001245000000129500400FGuías Top10                             00000     0000Shttp://images.megustaleer.com/dilve/DK32884.jpg
9780241432907     978-0-2414-3290-7                                                   DK32907        Guía Top 10 Copenhague                                                          La guía que descubre lo mejor de cada ciudad                                    VARIOS AUTORES                                                                                                                                        ES978-0-24DK                                        spa01012020012801020190                                                                                                    0100000001245000000129500400FGuías Top10                             00000     0000Shttp://images.megustaleer.com/dilve/DK32907.jpg
9780241432921     978-0-2414-3292-1                                                   DK32921        Guía Top 10 Budapest                                                            La guía que descubre lo mejor de cada ciudad                                    VARIOS AUTORES                                                                                                                                        ES978-0-24DK                                        spa01012020012801010190                                                                                                    0100000001245000000129500400FGuías Top10                             00000     0000Shttp://images.megustaleer.com/dilve/DK32921.jpg
9780241432945     978-0-2414-3294-5                                                   DK32945        Guía Top 10 Florencia                                                           La guía que descubre lo mejor de cada ciudad                                    VARIOS AUTORES                                                                                                                                        ES978-0-24DK                                        spa01012020016001020190                                                                                                    0100000001245000000129500400FGuías Top10                             00000     0000Shttp://images.megustaleer.com/dilve/DK32945.jpg
9780241432952     978-0-2414-3295-2                                                   DK32952        Guía Top 10 Lisboa                                                              La guía que descubre lo mejor de cada ciudad                                    VARIOS AUTORES                                                                                                                                        ES978-0-24DK                                        spa01012020012801020190                                                                                                    0100000001245000000129500400FGuías Top10                             00000     0000Shttp://images.megustaleer.com/dilve/DK32952.jpg
9780241432969     978-0-2414-3296-9                                                   DK32969        Guía Top 10 Estambul                                                            La guía que descubre lo mejor de cada ciudad                                    VARIOS AUTORES                                                                                                                                        ES978-0-24DK                                        spa01112019012801020190                                                                                                    0100000001245000000129500400FGuías Top10                             00000     0000Shttp://images.megustaleer.com/dilve/DK32969.jpg
9780241432976     978-0-2414-3297-6                                                   DK32976        Guía Top 10 Londres                                                                                                                                             VARIOS AUTORES                                                                                                                                        ES978-0-24DK                                        spa01012020019201020190                                                                                                    0100000001245000000129500400FGuías Top10                             00000     0000Shttp://images.megustaleer.com/dilve/DK32976.jpg
9780241432983     978-0-2414-3298-3                                                   DK32983        Guía Top 10 Madrid                                                              La guía que descubre lo mejor de cada ciudad                                    VARIOS AUTORES                                                                                                                                        ES978-0-24DK                                        spa01012020016001020190                                                                                                    0100000001245000000129500400FGuías Top10                             00000     0000Shttp://images.megustaleer.com/dilve/DK32983.jpg
9780241432990     978-0-2414-3299-0                                                   DK32990        Guía Top 10 Malta y Gozo                                                        La guía que descubre lo mejor de cada ciudad                                    VARIOS AUTORES                                                                                                                                        ES978-0-24DK                                        spa01012020012801020189                                                                                                    0100000001245000000129500400FGuías Top10                             00000     0000Shttp://images.megustaleer.com/dilve/DK32990.jpg
9780241433027     978-0-2414-3302-7                                                   DK33027        Guía Top 10 Marrakech                                                           La guía que descubre lo mejor de cada ciudad                                    VARIOS AUTORES                                                                                                                                        ES978-0-24DK                                        spa01012020012801010190                                                                                                    0100000001245000000129500400FGuías Top10                             00000     0000Shttp://images.megustaleer.com/dilve/DK33027.jpg
9780241433058     978-0-2414-3305-8                                                   DK33058        Guía Top 10 Milán y los lagos                                                   La guía que descubre lo mejor de cada ciudad                                    VARIOS AUTORES                                                                                                                                        ES978-0-24DK                                        spa01012020016001010190                                                                                                    0100000001245000000129500400FGuías Top10                             00000     0000Shttp://images.megustaleer.com/dilve/DK33058.jpg
9780241433065     978-0-2414-3306-5                                                   DK33065        Guía Top 10 Nueva York                                                          La guía que descubre lo mejor de cada ciudad                                    VARIOS AUTORES                                                                                                                                        ES978-0-24DK                                        spa01012020019201030190                                                                                                    0100000001245000000129500400FGuías Top10                             00000     0000Shttp://images.megustaleer.com/dilve/DK33065.jpg
9780241433102     978-0-2414-3310-2                                                   DK33102        Guía Top 10 París                                                               La guía que descubre lo mejor de cada ciudad                                    VARIOS AUTORES                                                                                                                                        ES978-0-24DK                                        spa01012020019201110196                                                                                                    0100000001245000000129500400FGuías Top10                             00000     0000Shttp://images.megustaleer.com/dilve/DK33102.jpg
9780241433119     978-0-2414-3311-9                                                   DK33119        Guía Top 10 Praga                                                               La guía que descubre lo mejor de cada ciudad                                    VARIOS AUTORES                                                                                                                                        ES978-0-24DK                                        spa01012020016001020189                                                                                                    0100000001245000000129500400FGuías Top10                             00000     0000Shttp://images.megustaleer.com/dilve/DK33119.jpg
9780241433126     978-0-2414-3312-6                                                   DK33126        Guía Top 10 Roma                                                                La guía que descubre lo mejor de cada ciudad                                    VARIOS AUTORES                                                                                                                                        ES978-0-24DK                                        spa01012020000001020190                                                                                                    0100000001245000000129500400FGuías Top10                             00000     0000Shttp://images.megustaleer.com/dilve/DK33126.jpg
9780241433133     978-0-2414-3313-3                                                   DK33133        Guía Top 10 Viena                                                               La guía que descubre lo mejor de cada ciudad                                    VARIOS AUTORES                                                                                                                                        ES978-0-24DK                                        spa01012020016001120196                                                                                                    0100000001245000000129500400FGuías Top10                             00000     0000Shttp://images.megustaleer.com/dilve/DK33133.jpg
9780241433140     978-0-2414-3314-0                                                   DK33140        Guía Top 10 Venecia                                                             La guía que descubre lo mejor de cada ciudad                                    VARIOS AUTORES                                                                                                                                        ES978-0-24DK                                        spa01012020016001020190                                                                                                    0100000001245000000129500400FGuías Top10                             00000     0000Shttp://images.megustaleer.com/dilve/DK33140.jpg
9780241433256     978-0-2414-3325-6                                                   DK33256        Vive Japón                                                                      Un viaje a través de la cultura japonesa                                        VARIOS AUTORES                                                                                                                                        ES978-0-24DK                                        spa01022020022401780226                                                                                                    0100000001918000000199500400FEstilo de vida                          00000     0000Shttp://images.megustaleer.com/dilve/DK33256.jpg
9780241433409     978-0-2414-3340-9                                                   DK33409        ¡Quiquiriquí! Amanece en la granja                                                                                                                              LAMBERT, JONNY                                                                                                                                        ES978-0-24DK                                        spa01012020001202170217                                                                                                    0100000001144000000119000400FPreescolar                              00000     0000Shttp://images.megustaleer.com/dilve/DK33409.jpg
9780241433423     978-0-2414-3342-3                                                   DK33423        La ciencia de las especias                                                                                                                                      FARRIMOND, DR. STUART                                                                                                                                 ES978-0-24DK                                        spa01012020022402210263                                                                                                    0100000002399000000249500400FCocina                                  00000     0000Shttp://images.megustaleer.com/dilve/DK33423.jpg
9780241433430     978-0-2414-3343-0                                                   DK33430        ¿Cómo piensa mi hijo?                                                                                                                                           VARIOS AUTORES                                                                                                                                        ES978-0-24DK                                        spa01022020025602010239                                                                                                    0100000002019000000210000400FEstilo de vida                          00000     0000Shttp://images.megustaleer.com/dilve/DK33430.jpg
9780241433447     978-0-2414-3344-7                                                   DK33447        El libro de Marvel                                                                                                                                              VARIOS AUTORES                                                                                                                                        ES978-0-24DK                                        spa01022020025601980233                                                                                                    0100000002399000000249500400FMarvel                                  00000     0000Shttp://images.megustaleer.com/dilve/DK33447.jpg
9780241433454     978-0-2414-3345-4                                                   DK33454        Soy C-3PO                                                                       La historia desde dentro                                                        DANIELS, ANTHONY                                                                                                                                      ES978-0-24DK                                        spa01052020027201620237                                                                                                    0100000002115000000220000400FStar Wars                               00000     0000Shttp://images.megustaleer.com/dilve/DK33454.jpg
9780241336502     978-0-2413-3650-2                                                   DK36502        GUÍA VISUAL TOP 10 CUBA                                                         La guía que descubre lo mejor de cada ciudad                                    VARIOS AUTORES                                                                                                                                        ES978-0-24DK                                        spa01112017014401020190                                                                                                    0100000001245000000129500400FGuías Top10                             00000     0000Shttp://images.megustaleer.com/dilve/DK36502.jpg
9780241336519     978-0-2413-3651-9                                                   DK36519        GUÍA VISUAL TOP 10 REPÚBLICA DOMINICANA                                         La guía que descubre lo mejor de cada ciudad                                    VARIOS AUTORES                                                                                                                                        ES978-0-24DK                                        spa01112017014401040190                                                                                                    0100000001245000000129500400FGuías Top10                             00000     0000Shttp://images.megustaleer.com/dilve/DK36519.jpg
