INCAMPRE03LIB01192L000123448633                                            FANDE
Isinli@azetadistribuciones.es                      sinli@milibreriainventada.es                      CAMPRE03        
CAZETA DISTRIBUCIONES                    20220726E
D978-84-15958-99-49788415958994     Y550070001     0000002212000000230000400LAUDATIO NATURAE                                  F
D978-84-7960-337-39788479603373     M590010120     0000001538000000160000400100 POEMAS                                        F
D978-84-9001-933-79788490019337     G092000033     0000000481000000050000400THE ADVENTURES OF HUCKLEBERRY FINN                F
D978-84-608-1582-29788460815822     BJS0010002     0000006600000000686400400DERECHO PENAL. PARTE GENERAL 2015                 F
D978-0-14-103357-09780141033570     I140011619     0000001909000000198500400THINKING FAST AND SLOW                            F
D978-0-241-54042-89780241540428     I140010415     0000001462000000152000400A PASSAGE TO INDIA                                F
D978-0-14-137563-29780141375632     I140010178     0000001202000000125000400ONE OF US IS LYING                                F
D978-0-241-95042-59780241950425     I140010086     0000000894000000093000400CATCHER IN THE RYE                                F
D978-0-14-101408-19780141014081     I140010007     0000002485000000258400400COMPLETE MAUS,THE                                 F
D978-1-78627-205-89781786272058     AWQ0030007     0000001270000000132100400TATTOO TAROT                                      F
D978-84-19156-15-09788419156150     X380010028     0000012404000001290000400ALINEADORES F22 DE LA INVESTIGACION A LA CLINICA  F
D978-1-7371261-0-29781737126102     X380010027     0000021154000002200000400SEE ART ESTHETICS DENTAL PHOTOGRAPHY              F
D978-1-7371261-1-99781737126119     X380010026     0000001731000000180000400SMILE ANALYSIS                                    F
D978-84-11-01747-39788411017473     G641720673     0000000188000000019600400BLEACH 1 BESTSELLER DEATH & STRAWBERRY            F
D978-84-19373-44-19788419373441     X260000944     0000001731000000180000400LOBAS Y LOBEZNAS                                  F
D978-84-125409-1-89788412540918     COZ0030024     0000002500000000260000400LOS HEROES DEL DOMINGO                            F
D978-84-18843-21-19788418843211     3100040044     0000003175000000330200400INTERVENCIO AMB FAMILIES I ATENCIO A MENORS EN RISF
D978-84-7914-688-79788479146887     3650160030     0000001826000000189900400OBRAS MAESTRAS DE ESPIRITUALIDAD                  F
D978-84-220-1836-09788422018360     3650020091     0000001730000000179900400MATRIMONIO Y EVANGELIZACION                       F
D978-84-7914-128-89788479141288     3650010037     0000003653000000379900400TEOLOGIA DE LA PERFECCION CRISTIANA               F
D978-1-107-54240-29781107542402     1462037797     0000005760000000599000400OBJECTIVE FIRST ST WITHOUT KEY+CD+TESTBANK 16     F
D978-989-37-3825-29789893738252     BUG0060001     0000001500000000156000400TRES QUARTS DE NIT                                F
D978-989-37-3750-79789893737507     BUG0050002     0000001600000000166400400EL DESCUARTIZADOR DEL PEINE                       F
D978-989-37-3974-79789893739747     BUG0050001     0000001600000000166400400A TRAVES DE UN OBJETIVO                           F
D978-989-37-3785-99789893737859     BUG0040001     0000001200000000124800400VERSIONES DEL AMANTE INTERNAUTA.NET               F
D978-989-37-2629-79789893726297     BIE0040014     0000001400000000145600400BUSCAD Y HALLAREIS                                F
D978-84-125343-6-89788412534368     AZQ0030002     0000001700000000176800400TE HARE LA VIDA IMPOSIBLE                         F
D978-84-08-20897-69788408208976     A351370004     0000000380000000039500400DISTROLLER CHIKIMANDALAS                          F
D978-88-6527-473-69788865274736     BOP0010227     0000001525000000184502100ZODIAC ORACLE                                     F
D978-88-8395-509-99788883955099     BOP0010547     0000001645000000199002100UNIVERSAL MARSELLA                                F
D978-1-922161-68-09781922161680     BOP0010023     0000002645000000320002100RUMI ORACLE                                       F
D978-88-8395-388-09788883953880     BOP0010533     0000001645000000199002100TAROT DE LOS NATIVOS AMERICANOS                   F
D978-88-6527-390-69788865273906     BOP0010185     0000001525000000184502100NATIVE AMERICAN ORACLE CARDS                      F
D978-88-6527-657-09788865276570     BOP0010369     0000001074000000130002100MINI TAROT MARSEILLE                              F
D978-84-285-2329-59788428523295     1081200002     0000000567000000059000400CUANDO ESTOY TRISTE                               F
D978-88-6527-486-69788865274866     BOP0010237     0000001525000000184502100I CHING 64 ORACLE CARDS                           F
D978-84-96210-12-79788496210127     M529780082     0000000865000000090000400HAY GENTE PA TO                                   F
D978-84-220-1893-39788422018933     3650060047     0000001634000000169900400ILUSTRISIMOS SE¥ORES CARTA DEL PATRIARCA DE VENECIF
D978-987-96370-1-29789879637012     MDB0060013     0000002212000000230000400NUEVA VISION,LA                                   F
D978-980-6329-47-89789806329478     F480010014     0000001053000000109500400METAFISICA 4 EN 1 VOL.I NE                        F
D978-88-6527-528-39788865275283     BOP0010267     0000002058000000249002100GOLDEN TAROT DE MARSEILLE                         F
D978-88-8395-525-99788883955259     BOP0010009     0000001645000000199002100TAROT DE LAS DIOSAS                               F
D978-88-6527-723-29788865277232     BOP0010453     0000001525000000184502100DE LA NUIT ORACLE                                 F
D978-84-291-4019-49788429140194     M920150001     0000001000000000104000400MANUAL SOLUCIONES FISICA CUANTICA                 F
D978-88-6527-305-09788865273050     BOP0010004     0000001645000000199002100TAROT NICOLETTA CECCOLI                           F
D978-88-6527-296-19788865272961     BOP0010006     0000001645000000199002100TAROT WITCHCRAFT                                  F
D978-84-338-5893-19788433858931     3390680059     0000001731000000180000400VIAJE DEL ANILLO MAPA NARRATIVO DE LA TIERRA MEDIAF
D978-84-338-5380-69788433853806     3390340001     0000000962000000100000400AL PIE DE LA ALHAMBRA                             F
D978-1-4472-9489-49781447294894     I030060008     0000001053000000109500400A MANUAL FOR CLEANING WOMAN                       F
D978-84-9913-515-19788499135151     0822640002     0000000384000000039900400GRANOTA                                           F
D978-84-9913-514-49788499135144     0822640001     0000000384000000039900400DOFI                                              F
D978-88-07-88089-69788807880896     O19UNY0001     0000001400000000145600400SETA                                              F
D978-87-23-51220-89788723512208     B8T0130027     0000001675000000174200400OTTO GIORNI CON MONTALBANO                        F
D978-84-9845-905-09788498459050     6080050089     0000000957000000099500400SEGISMUNDO Y COMPA¥IA                             F
D978-84-16029-80-89788416029808     N470010096     0000001721000000179000400HABLE COMO EN TED                                 F
D978-84-1388-175-19788413881751     KVQ0090053     0000003500000000364000400CRIPTOACTIVOS DE LA PARALEGALIDAD A LA PAULATINA LF
D978-0-7445-2323-29780744523232     L729780009     0000001043000000108500400WE'RE GOING ON A BEAR HUNT                        F
D978-1-4711-6582-59781471165825     I490060003     0000001909000000198500400THE SUN AND HER FLOWERS                           F
D978-1-4711-5462-19781471154621     I490030083     0000001149000000119500400NOVEMBER 9                                        F
D978-1-3985-1562-89781398515628     I490030080     0000001312000000136400400THE SPANISH LOVE DECEPTION                        F
D978-1-4729-7382-59781472973825     I140430040     0000001010000000105000400WHICH FOOD WILL YOU CHOOSE                        F
D978-1-4088-7241-39781408872413     I140430039     0000001010000000105000400WE'RE GOING ON AN ELF CHASE                       F
D978-1-78730-252-59781787302525     I140420096     0000001389000000144500400ANIMAL FARM                                       F
D978-1-5291-5047-69781529150476     I140420094     0000001803000000187500400LORE OLYMPUS VOLUME TWO                           F
D978-1-5291-1066-19781529110661     I140420093     0000001192000000124000400THE ONLY STORY                                    F
D978-1-78474-461-89781784744618     I140420092     0000001865000000194000400CALL US WHAT WE CARRY                             F
D978-0-241-98644-89780241986448     I140012439     0000001327000000138000400BASTARD OF ISTANBUL THE                           F
D978-0-14-199106-19780141991061     I140010551     0000001851000000192500400THE DAWN OF EVERYTHING                            F
D978-0-14-136544-29780141365442     I140010301     0000000889000000092500400FANTASTIC MR FOX NE                               F
D978-0-241-34166-79780241341667     I140010222     0000001226000000127500400ANIMAL FARM                                       F
D978-0-14-119027-39780141190273     I140010074     0000001490000000155000400STREETCAR NAMED DESIR                             F
D978-0-241-95534-59780241955345     I02UNY0091     0000001462000000152000400KISS KISS                                         F
D978-0-593-48933-89780593489338     I020011589     0000001716000000178500400THE LINCOLN HIGHWAY                               F
D978-0-14-136549-79780141365497     I020011127     0000000894000000093000400THE TWITS NE                                      F
D978-0-14-029778-29780140297782     I020010766     0000001192000000124000400WHITE TEETH                                       F
D978-0-09-990840-19780099908401     I020010648     0000001043000000108500400OLD MAN AND THE SEA                               F
D978-1-85326-065-09781853260650     E540010149     0000000423000000044000400SECRET AGENT                                      F
D978-1-85326-048-39781853260483     E540010139     0000000423000000044000400DUBLINERS                                         F
D978-0-241-98325-69780241983256     BQO0010001     0000001269000000132000400JUST LIKE YOU                                     F
D978-0-316-23653-99780316236539     AIQ0010020     0000001409000000146500400GO AWAY BIG GREEN MONSTER                         F
D978-0-349-11346-39780349113463     AIQ0010008     0000001442000000150000400THE TIPPING POINT: HOW LITTLE THINGS CAN MAKE A BIF
D978-84-95296-07-89788495296078     C68UNY0005     0000001202000000125000400METODO DE SOLFEO. PRIMERA PARTE                   F
D978-84-7245-483-59788472454835     7310210066     0000001875000000195000400AUTOBIOGRAFIA DE UN MISTICO ESPIRITUALMENTE INCORRF
D978-84-9988-500-19788499885001     AMS0010004     0000001635000000170000400INTELÚLIGENCIA VITAL                              F
D978-84-15576-73-09788415576730     7890021009     0000003654000000380000400MAIA,LOS                                          F
