INENVIO 08TRAFD000L1234567000200017811                                     FANDE
Isinli.distri@traficantes.net                      libreria@example.org                              ENVIO 0800017811
CALTERNATIVA DE DISTRIBUCIÓN TRAFICANTES LIBRERIA DE EJEMPLO                     A24/1409  20240409ADN0000000000E        
D978-84-96453-60-99788496453609                    CAPITALISMO Y ESCLAVITUD                          0000010000002115000000220000300000400NF        479       WILLIAMS, ERIC                                                                                                                                         
D978-84-932982-4-19788493298241                    LA FABRICA DE LA INFELICIDAD                      0000010000001010000000105000300000400NF        479       BERARDI, FRANCO                                                                                                                                        
D978-84-96453-73-99788496453739                    FEMINISMOS NEGROS. UNA ANTOLOGIA                  0000020000002404000000250000300000400NF        479       JABARDO, MERCEDES                                                                                                                                      
D978-84-96453-48-79788496453487                    SUBVERSION FEMINISTA DE LA ECONOMIA               0000010000001923000000200000300000400NF        479       PEREZ OROZCO, AMAIA                                                                                                                                    
D978-84-947196-4-69788494719646                    ¿CÓMO SE CONSTRUYE UN ENEMIGO PÚBLICO?            0000010000001346000000140000300000400NF        479       QUIEROLO PALMAS, LUCA                                                                                                                                  
D978-84-948068-3-49788494806834                    EL PATRIARCADO DEL SALARIO                        0000020000001250000000130000300000400NF        479       FEDERICI, SILVIA                                                                                                                                       
D978-84-948594-1-09788494859410                    TETUÁN RESISTE                                    0000010000001346000000140000300000400NF        479       VV. AA.                                                                                                                                                
D978-84-948594-0-39788494859403                    LA BURBUJA DEL EMPRENDIMIENTO Y LA ATOMIZACIÓN DE 0000010000001154000000120000300000400NF        479       MARTINEZ BEDÍA, JOSE MANUEL                                                                                                                            
D978-84-948594-2-79788494859427                    BARRIONALISMO                                     0000020000001154000000120000300000400NF        479       DE LA CRUZ SALANOVA, LUIS                                                                                                                              
D978-84-948594-5-89788494859458                    LA HISTORIA VACIADA                               0000010000001442000000150000300000400NF        479       TUR BALAGUER, FRANCESC                                                                                                                                 
D978-987-47098-1-39789874709813                    NI OLVIDO NI PERDON..                             0000010000000962000000100000300000400NF        479       ESTEBAN PITTUELLI, DANIEL                                                                                                                              
D978-84-125753-7-89788412575378                    MILITANCIA ALEGRE                                 0000010000001442000000150000300000400NF        479       BERGMAN, CARLA/ MONTGOMERY, NICK                                                                                                                       
D978-84-19833-06-89788419833068                    ABOLIR LA FAMILIA                                 0000030000001346000000140000300000400NF        479       LEWIS, SOPHIE                                                                                                                                          
D978-84-19833-05-19788419833051                    HEGEMONIA SEXUAL                                  0000020000001923000000200000300000400NF        479       CHITTY, CHRISTOPHER                                                                                                                                    
D978-84-19833-11-29788419833112                    LA RESTAURACIÓN DE LA NORMALIDAD                  0000010000000962000000100000300000400NF        479       VV.AA.                                                                                                                                                 
T0000002100000312020000021841
V0040000000218410000000874000000000000000
