INENVIO 04L0004643L1234567000000000000                                     FANDE
Isinli.lasombra@arminet.es                         libreria@example.org                              ENVIO 04        
CLa Sombra de Caín                       ASSOCIACIO ACCIO CULTURAL DE BARCELONA         80920240411ADN0000000000E
D978-84-124091-9-29788412409192                    Los más ordenaditos                               0000010000002211000000230000300000400NF20240610          
D978-84-121206-4-69788412120646                    El príncipe blanco y la resistencia del pueblo cer0000010000001201000000125000300000400NF20240610          
D978-84-121206-2-29788412120622                    Los latidos del corazón                           0000010000001682000000175000300000400NF20240610          
D978-84-124923-3-09788412492330                    TOMAR TU MANO                                     0000010000001778000000185000300000400NF20240610          
D978-84-124923-0-99788412492309                    259 saltos, uno inmortal                          0000010000001528000000159000300000400NF20240610          
D978-84-949333-5-69788494933356                    El power ranger rosa                              0000010000001346000000140000300000400NF20240610          
D978-84-948162-3-99788494816239                    Eligieron ser libres                              0000010000001730000000180000300000400NF20240610          
D978-84-09-52788-59788409527885                    Papeles subterráneos (tapa blanda)                0000010000002788000000290000300000400NF20240610          
D978-84-949333-8-79788494933387                    Esos días a finales de aquel año                  0000010000002115000000220000300000400NF20240610          
D978-84-949333-9-49788494933394                    Lolo                                              0000010000001346000000140000300000400NF20240610          
D978-84-09-49394-49788409493944                    Caps Lock                                         0000010000001923000000200000300000400NF20240610          
D978-84-949333-2-59788494933325                    Calypso                                           0000010000001346000000140000300000400NF20240610          
D978-84-949333-3-29788494933332                    Transirak                                         0000010000001346000000140000300000400NF20240610          
D978-84-949333-0-19788494933301                    Salvemos la jarapa                                0000010000001346000000140000300000400NF20240610          
D978-84-949333-1-89788494933318                    Vivan los hombres cabales                         0000010000001346000000140000300000400NF20240610          
D978-84-949333-7-09788494933370                    A mordiscos la orquídea                           0000010000001346000000140000300000400NF20240610          
T0000001600000263840000018467
V0040000000184670000000739
